:060000000A128A11162904
:10000800F000030EF1000B1816200B1920200C1815
:1000180036208C18382003138312710E8300F00EDB
:10002800700E090003138312061C2014861CA014EA
:10003800061D20150B10080003138312BA30810027
:100048000B11A21B3B23221B2123A21A0723221ACE
:10005800ED22A219D3222219B922A2189F2222180E
:100068008522080055230800231C432821183F280F
:10007800211408104328211C4328211008140313B5
:1000880083127A3092008C10A31C5228211C4E280F
:100098008814211021185228881021140313831260
:1000A8007A3092008C10231D6128211C5D280815C8
:1000B80021102118612808112114031383127A30A2
:0600C80092008C100800FC
:10020000031383128A010A1482073F3406345B34D5
:100210004F3466346D347D3447347F3467347734FB
:100220007C3439345E347934713408000317831612
:100230008801890103138316003087000730860088
:1002400000308800003089000030850003138316D9
:100250000730960003138316811381120112811156
:1002600001118114011403138312BA300313831292
:10027000901010169016901103138312FF30920005
:10028000031383160F148F110F168F160F130313FA
:1002900083128B178B158B160B17031383160C14F5
:1002A0008C140313831285018601870188010A30AB
:1002B000B5000A30B7000A30B900AD01AF01B10195
:1002C000B301A001A701A301A2012214A1010313FC
:1002D000831210140313831212117A217F218821B3
:1002E000A721C421E121F6216D29031383120C18E3
:1002F000552308000A30A700A900AB00080003132B
:1003000083128615061286120122201C84290800F9
:100310000313831288010613861106168612201015
:10032000A018A70A2019A7032708093C031C9A292B
:100330001430A70015302702031CA0290A30A7009B
:100340002708AD00A0102011201C882908000313E5
:1003500083128615061686122010A018A90A2019E5
:10036000A9032908093C031CB7291430A90015303A
:100370002902031CBD290A30A9002908AD00A010DC
:100380002011201CA72908000313831286110612CE
:1003900086162010A018AB0A2019AB032B08093CC5
:1003A000031CD4291430AB0015302B02031CDA29AE
:1003B0000A30AB002B08AD00A0102011201CC4296E
:1003C0000800031383128615061286162010A01C3F
:1003D000F0292708B5002908B7002B08B900F5292E
:1003E000201DE729A701A901AB0108000C1CF62973
:1003F000FF308800061787010C1CFB2988010613B3
:100400000800031383121211813088000617350883
:10041000B10035083707B30006303502AF002F08AA
:10042000003C031C0F2A0930A3000313831212158A
:10043000201888290330AF002F08003C031C1C2A19
:100440000313831212112018882988308800033082
:10045000AF002F08003C031C292A20188829031309
:10046000831212114230880006173708B300063095
:100470003702B10037083907AF003108003C031CD0
:100480003D2A0313831212150A30A300201888296D
:100490000330B1003108003C031C4A2A03138312C5
:1004A000121120188829503088000330B10031081B
:1004B000003C031C572A20188829C43088000613E2
:1004C0003908AF0006303902B30039083507B100EA
:1004D0003308003C031C682A0313831212150C30E6
:1004E000A300201888290330B3003308003C031C04
:1004F000752A031383121211E03088000330B30011
:100500003308003C031C802A0800A4012D08A50024
:100510000A30A40AA5020318892AA403A5072508FE
:10052000A60003138312870126080F390021031345
:100530008312870002308500A201A2140800A401E2
:100540002D08A5000A30A40AA5020318A32AA403B3
:10055000A5072508A60003138312870124080F3975
:10056000002103138312870001308500A2012215A8
:100570000800A4012F08A5000A30A40AA502031848
:10058000BD2AA403A5072508A6000313831287012B
:1005900026080F39002103138312870008308500D5
:1005A000A201A2150800A4012F08A5000A30A40A80
:1005B000A5020318D72AA403A5072508A60003133C
:1005C0008312870124080F39002103138312870047
:1005D00004308500A20122160800A4013108A500FC
:1005E0000A30A40AA5020318F12AA403A5072508C6
:1005F000A60003138312870126080F390021031375
:100600008312870020308500A201A2160800A401F1
:100610003108A5000A30A40AA50203180B2BA40375
:10062000A5072508A60003138312870124080F39A4
:10063000002103138312870010308500A2012217C6
:100640000800A4013308A5000A30A40AA502031873
:10065000252BA403A5072508A600031383128701F1
:1006600026080F390021031383128700803085008C
:10067000A201A2170800A4013308A5000A30A40AA9
:10068000A50203183F2BA403A5072508A600031302
:100690008312870124080F39002103138312870076
:1006A00040308500A2012214080003138312C230D7
:1006B0008F00F7308E000C10AF03B103B3030800B6
:04400E00C430FF3F7C
:00000001FF
