:060000000A128A11162904
:10000800F000030EF1000B1816200B1920200C1815
:1000180036208C18382003138312710E8300F00EDB
:10002800700E090003138312061C2014861CA014EA
:10003800061D20150B10080003138312F0308100F1
:100048000B11A21B4923221B2F23A21A1523221AA4
:10005800FB22A219E1222219C722A218AD222218D6
:100068009322080063230800231C432821183F28F3
:10007800211408104328211C4328211008140313B5
:1000880083127A3092008C10A31C5228211C4E280F
:100098008814211021185228881021140313831260
:1000A8007A3092008C10231D6128211C5D280815C8
:1000B80021102118612808112114031383127A30A2
:0600C80092008C100800FC
:10020000031383128A010A1482073F3406345B34D5
:100210004F3466346D347D3447347F3467347734FB
:100220007C3439345E347934713408000317831612
:100230008801890103138316003087000730860088
:1002400000308800003089000030850003138316D9
:100250000730960003138316811381120112811156
:1002600001158114011003138312B23081000313AE
:100270008312901010169016901103138312FF3002
:100280009200031383160F148F110F168F160F137E
:10029000031383128B178B158B160B1703138316FF
:1002A0000C148C14031383128501860187018801C5
:1002B0000A30B5000A30B7000A30B900AD01AF010D
:1002C000B101B301A001A701A301A2012214A10160
:1002D0000313831210140313831212117B21802144
:1002E0008921A821C521E221F7216E290313831258
:1002F0000C18632308000A30A700A900AB0008000F
:10030000031383128615061286120222201C8529E9
:10031000080003138312880106138611061686123D
:100320002010A018A70A2019A7032708093C031CBE
:100330009B291430A70015302702031CA1290A307D
:10034000A7002708AD00A0102011201C8929080053
:10035000031383128615061686122010A018A90A08
:100360002019A9032908093C031CB8291430A90045
:1003700015302902031CBE290A30A9002908AD0046
:10038000A0102011201CA829080003138312861135
:10039000061286162010A018AB0A2019AB032B08F2
:1003A000093C031CD5291430AB0015302B02031C6B
:1003B000DB290A30AB002B08AD00A0102011201C57
:1003C000C52908000313831286150612861620100D
:1003D000A01CF1292708B5002908B7002B08B9008F
:1003E000F629201DE829A701A901AB0108000C1C72
:1003F000F7298701FF30880006170C1CFD298801AA
:1004000006130800031383121211813088000617A7
:100410003508B10035083707B30006303502AF00A4
:100420002F08003C031C102A0930A3000313831279
:100430001215201889290330AF002F08003C031C37
:100440001D2A03138312121120188929883088006D
:100450000330AF002F08003C031C2A2A20188929EA
:100460000313831212114230880006173708B300B5
:1004700006303702B10037083907AF003108003CB9
:10048000031C3E2A0313831212150A30A3002018FE
:1004900089290330B1003108003C031C4B2A0313A7
:1004A0008312121120188929503088000330B100BE
:1004B0003108003C031C582A20188929C4308800C0
:1004C00006133908AF0006303902B3003908350782
:1004D000B1003308003C031C692A03138312121570
:1004E0000C30A300201889290330B3003308003CE6
:1004F000031C762A031383121211E03088000330A4
:10050000B3003308003C031C812A0800A601A401A3
:100510002D08A5000A30A40AA50203188B2AA403FB
:100520002508A6000800A4012D08A5000A30A40A89
:10053000A5020318972AA403A5072508A6000313FC
:100540008312870126080F390021031383128700C5
:1005500002308500A201A2140800A4012D08A50004
:100560000A30A40AA5020318B12AA403A507250886
:10057000A60003138312870124080F3900210313F7
:100580008312870001308500A20122150800A40112
:100590002F08A5000A30A40AA5020318CB2AA40339
:1005A000A5072508A60003138312870126080F3923
:1005B000002103138312870008308500A201A215D1
:1005C0000800A4012F08A5000A30A40AA5020318F8
:1005D000E52AA403A5072508A600031383128701B3
:1005E00024080F390021031383128700043085008B
:1005F000A20122160800A4013108A5000A30A40AAD
:10060000A5020318FF2AA403A5072508A6000313C3
:100610008312870126080F390021031383128700F4
:1006200020308500A201A2160800A4013108A5000F
:100630000A30A40AA5020318192BA403A50725084C
:10064000A60003138312870124080F390021031326
:100650008312870010308500A20122170800A40130
:100660003308A5000A30A40AA5020318332BA403FB
:10067000A5072508A60003138312870126080F3952
:10068000002103138312870080308500A201A21786
:100690000800A4013308A5000A30A40AA502031823
:1006A0004D2BA403A5072508A60003138312870179
:1006B00024080F390021031383128700403085007E
:1006C000A2012214080003138312C2308F00F730F6
:0C06D0008E000C10AF03B103B303080050
:04400E00C430FF3F7C
:00000001FF
