:060000000A128A11162904
:10020000031383128A010A1482073F3406345B34D5
:100210004F3466346D347D3447347F3467347734FB
:100220007C3439345E34793471340800031383121A
:1002300090101016901690110313831601140117D5
:10024000811201128111011081140115031383120F
:10025000FF309200031383168F110F168F160F13A2
:10026000031783168801890103138316FE30860065
:1002700080308700FC3088000313831286018701D9
:100280008801A101031383121014031383120B19A5
:100290005421031383120B196521031383120C18C5
:1002A00076218C187F2145290313831287012108A9
:1002B0000F390021031383128700881408100313D9
:1002C0008312F03081000B110800031383128701A1
:1002D000210E0F39002103138312870008148810A0
:1002E00003138312F03081000B110800A10A0313DD
:1002F0008312C2308F00F7308E000C1008000313F9
:10030000831201308606031383127A3091008C1019
:020310000800E3
:04400E00C430FF3F7C
:00000001FF
