:020000040000FA
:060000000A128A110E280D
:10000800FE00030E83120313A8000A08A9000A12AF
:100018008A1125280A128A111128FB01FC01831272
:100028000313B101B201B301B401B501B601B701BF
:10003800B801B901BA01BB01BC0183010A128A11D6
:10004800502A0B1D28282928E02807140030F6001C
:100058000130F7003408F1003308F0006430F20092
:100068000030F3000A128A1142240A128A11710818
:10007800F9007008F8000A128A11D9230A128A11A5
:100088007608643E83120313A40077080318013E20
:10009800003EA5000A128A119F240A128A118312AF
:1000A8000313071087150030F6000130F7003608F3
:1000B800F1003508F0006430F2000030F3000A1255
:1000C8008A1142240A128A117108F9007008F8008E
:1000D8000A128A11D9230A128A117608643E8312F9
:1000E8000313A40077080318013E003EA5000A1276
:1000F8008A119F240A128A11831203138711071683
:100108000030F6000130F7003608F1003508F0003D
:100118006430F2000030F3000A128A1142240A12F5
:100128008A117108F9007008F8000A128A11D92397
:100138000A128A117608643E83120313A400770812
:100148000318013E003EA5000A128A119F240A12D4
:100158008A1183120313071287160030F600013044
:10016800F7003208F1003108F0006430F200003086
:10017800F3000A128A1142240A128A117108F9003E
:100188007008F8000A128A11D9230A128A1176080F
:10019800643E83120313A40077080318013E003E4F
:1001A800A5000A128A119F240A128A1183120313C6
:1001B8008712E13081000B110B1CE328E428232966
:1001C8008618E728E828ED280130B7000030B80085
:1001D80022290619F028F128062937083804031DB2
:1001E800F628F728FC280230B7000030B80022298A
:1001F800023037063804031D022903292229B701D2
:10020800B8012229861909290A2915293708380425
:10021800031D0F29102922298030B1000030B200B7
:100228002229861D18291929222937083804031D6F
:100238001E291F292229B101B20122290B108C1E67
:1002480026292729FE2931301A06031D2C292D2994
:1002580049290310081C031403183329372983126A
:10026800031308143A298312031308103F084004A3
:1002780003193F294129013042290030A600A7016E
:100288002608BF002708C000FE2932301A06031DC1
:100298004E294F296B290310881C0314031855296C
:1002A80059298312031388145C29831203138810B5
:1002B8003D083E040319612963290130642900308F
:1002C800A600A7012608BD002708BE00FE29303079
:1002D8001A06031D702971298C2903303706380442
:1002E800031D772978297E2908120130B7000030CC
:1002F800B800FE29033037063804031984298529F4
:100308008B2908160330B7000030B800FE29FE29F3
:1003180077301A06031D912992299E290330370642
:100328003804031D982999299E29FF30B30000300D
:10033800B400FE2973301A06031DA329A429AE2987
:10034800033037063804031DAA29AB29AE29B301A7
:10035800B401FE2961301A06031DB329B429C02946
:10036800033037063804031DBA29BB29C029FF30DA
:10037800B5000030B600FE2964301A06031DC529F1
:10038800C629D029033037063804031DCC29CD29C6
:10039800D029B501B601FE2920301A06031DD5293A
:1003A800D629E729033037063804031DDC29DD295F
:1003B800E729803031063204031DE329E429E729BF
:1003C800B101B201FE2920301A06031DEC29ED29DE
:1003D8008B29033037063804031DF329F4298B29A8
:1003E80031083204031DF929FA298B298030B1001C
:1003F8000030B2000C1F012A022A3F2A1F0CA60057
:10040800260C0F39023A031D0A2A0B2A112A1E0844
:10041800A6000310260C95003E2A1F0CA600260CE9
:100428000F39013A031D192A1A2A282A37083804CD
:10043800031D1F2A202A282A1E08A600A70126080D
:10044800B5002708B6003E2A1F0CA600260C0F3957
:10045800003A031D302A312A3E2A37083804031D82
:10046800362A372A3E2A1E08A600A7012608B30006
:100478002708B4000C130D1E422A432A442A0D12E1
:100488008C1C472A482A492A8C1029088A00280ED9
:100498008300FE0E7E0E09000730831603178800BE
:1004A800890107308316031385000E308600C0309B
:1004B8008700880103308312031388000130BF00CE
:1004C8000030C0000130BD000030BE000E30831681
:1004D8000313960070308F048F110F14811381124B
:1004E800011281110108F83906388100E1308312C0
:1004F80003138100831603130C170D1683120313BD
:100508001F083F3980389F001F14831603139F1359
:100518001F129F12831203139F10C3309F050C30C4
:10052800831603139900181283120313981783165E
:1005380003131813981283120313181318163F3055
:1005480097051708F0390C38970083160313071519
:10055800F63092000F30831203139500CF309705C1
:10056800873092050330920412158C108C1CBD2A1A
:10057800BE2ABA2A8C108316031307118C160C1284
:100588008B150B170B168B170D160B1083120313F5
:100598000C128C129F14B701B801072B9F18D52A8B
:1005A800D62A072B1F0CAE002E0C0F39003A031D5C
:1005B800DE2ADF2AE42A1F08C33904389F00FD2AEF
:1005C8001F0CAE002E0C0F39013A031DEC2AED2A40
:1005D800F22A1F08C33908389F00FD2A1F0CAE00F5
:1005E8002E0C0F39023A031DFA2AFB2AFD2AC330C2
:1005F8009F05203083120313AE00AE0B012B0000C1
:10060800831203139F143708380403190C2B0D2B7E
:10061800D22A37033804031D122B132B6F2B08150E
:100628000030AA00AB003608AD003508AC000A124D
:100638008A1167240A128A11013083120313AA004F
:100648000030AB003408AD003308AC000A128A1140
:1006580067240A128A11023083120313AA00003099
:10066800AB003208AD003108AC000A128A116724C9
:100678000A128A11033083120313AA000030AB0058
:100688004008AD003F08AC000A128A1167240A121C
:100698008A11043083120313AA000030AB003E080D
:1006A800AD003D08AC000A128A1167240A128A11AB
:1006B800063083120313B0001330AF00AD30AE0024
:1006C800AE0B642BAF0B642BB00B642B831203139C
:1006D8000811B701B801023037063804031D752B1D
:1006E800762BCE2B88150030AA00AB000A128A118F
:1006F80089240A128A11831203132B08B6002A08C8
:10070800B5000130AA000030AB000A128A11892412
:100718000A128A11831203132B08B4002A08B300A3
:100728000230AA000030AB000A128A1189240A128A
:100738008A11831203132B08B2002A08B100033070
:10074800AA000030AB000A128A1189240A128A1101
:100758008312031308082A06FE392A068800043083
:10076800AA000030AB000A128A1189240A128A11E1
:10077800831203132A08AE00AE0D08082E06FD39B1
:100788002E0688000230370638040319CC2BCD2BEF
:10079800C62B88110330370638040319D42BD52B00
:1007A800CE2B072B0A128A110E2883120313A101DC
:1007B800F71FDF2BE02BE72BF609F709F60A0319D9
:1007C800F70AA101A10AF91FEA2BEB2BF42BF80970
:1007D800F909F80A0319F90A0130FA007A08A1069A
:1007E800A201A301760877040319FB2BFC2B332CF9
:1007F800A001A00A0A2C01300310F60DF70DFF3EE8
:10080800031D002C0130FA007A08A007F71F0D2CF1
:100818000E2CFF2B01300310A20DA30DFF3E031D6C
:100828000F2C77087902031D1B2C76087802031C0D
:100838001E2C1F2C262C7608F8027708031CF903B7
:10084800F902221401300310F70CF60CFF3E031DC9
:10085800272C0130A002031D322C332C0E2C21082A
:100868000319372C382C3D2CA209A309A20A031915
:10087800A30A2308F7002208F6000800F401F5018E
:10088800701C472C482C4E2C7208F4070318F50AE4
:100898007308F50701300310F20DF30DFF3E031D39
:1008A8004F2C01300310F10CF00CFF3E031D562CA9
:1008B80070087104031D612C622C442C7508F1002A
:1008C8007408F0000800831203132C08831203171E
:1008D8008D00831203132A08831203178C008316D2
:1008E80003178C130C158B1355308D00AA308D000F
:1008F8008C14831203130D1E822C832C7D2C0D1255
:10090800831603170C118B170800831203132A0888
:10091800831203178D00831603178C130C1483128C
:1009280003170C0883120313AC00AD012C08AA00AE
:100938002D08AB000800A12CA12CFF308312031353
:10094800A4070318A50AFF30A507240A031DB02C25
:0C095800250A031DB02CB12CA02C0800B7
:04400E00F43FFF3F3D
:00000001FF
