:020000040000FA
:060000000A128A110E280D
:10000800FE00030E83120313A8000A08A9000A12AF
:100018008A113B280A128A1111280A128A119A2574
:100028000A128A11C1000A128A119B250A128A1122
:10003800C2000A128A119C250A128A11C3000A12E8
:100048008A119D250A128A11C400B101B201B301B7
:10005800B401B501B601B701B801B901BA01BB01D4
:10006800BC01FB01FC0183010A128A11662A0B1DDF
:100078003E283F28F62807140030F6000130F70024
:100088003408F1003308F0006430F2000030F30067
:100098000A128A112A250A128A117108F9007008B1
:1000A800F8000A128A119C240A128A117608643E02
:1000B80083120313A40077080318013E003EA5002D
:1000C8000A128A1187250A128A118312031307104C
:1000D80087150030F6000130F7003608F1003508C2
:1000E800F0006430F2000030F3000A128A112A2569
:1000F8000A128A117108F9007008F8000A128A11A8
:100108009C240A128A117608643E83120313A40001
:1001180077080318013E003EA5000A128A118725B8
:100128000A128A1183120313871107160030F6008A
:100138000130F7003608F1003508F0006430F200AD
:100148000030F3000A128A112A250A128A1171084E
:10015800F9007008F8000A128A119C240A128A1100
:100168007608643E83120313A40077080318013E3F
:10017800003EA5000A128A1187250A128A118312E5
:100188000313071287160030F6000130F700320813
:10019800F1003108F0006430F2000030F3000A1278
:1001A8008A112A250A128A117108F9007008F800C4
:1001B8000A128A119C240A128A117608643E831254
:1001C8000313A40077080318013E003EA5000A1295
:1001D8008A1187250A128A11831203138712E130C4
:1001E80081000B110B1CF928FA2839298618FD28DB
:1001F800FE2803290130B7000030B8003829061955
:10020800062907291C2937083804031D0C290D293C
:1002180012290230B7000030B800382902303706FA
:100228003804031D182919293829B701B8013829B4
:1002380086191F2920292B2937083804031D252949
:10024800262938298030B1000030B2003829861DAF
:100258002E292F29382937083804031D3429352930
:100268003829B101B20138290B108C1E3C293D29CF
:10027800142A31301A06031D422943295F29031025
:10028800081C0314031849294D2983120313081461
:1002980050298312031308103F08400403195529F5
:1002A8005729013058290030A600A7012608BF00A9
:1002B8002708C000142A32301A06031D642965294C
:1002C80081290310881C031403186B296F298312D2
:1002D8000313881472298312031388103D083E04FF
:1002E80003197729792901307A290030A600A70156
:1002F8002608BD002708BE00142A30301A06031D40
:1003080086298729A229033037063804031D8D2939
:100318008E29942908120130B7000030B800142A39
:1003280003303706380403199A299B29A12908168E
:100338000330B7000030B800142A142A77301A06A0
:10034800031DA729A829B429033037063804031D3B
:10035800AE29AF29B429FF30B3000030B400142A05
:1003680073301A06031DB929BA29C4290330370680
:100378003804031DC029C129C429B301B401142AB2
:1003880061301A06031DC929CA29D6290330370640
:100398003804031DD029D129D629FF30B5000030F3
:1003A800B600142A64301A06031DDB29DC29E62965
:1003B800033037063804031DE229E329E629B5018D
:1003C800B601142A20301A06031DEB29EC29FD2951
:1003D800033037063804031DF229F329FD2980303C
:1003E80031063204031DF929FA29FD29B101B201A8
:1003F800142A20301A06031D022A032AA1290330D1
:1004080037063804031D092A0A2AA12931083204AB
:10041800031D0F2A102AA1298030B1000030B20034
:100428000C1F172A182A552A1F0CA600260C0F394C
:10043800023A031D202A212A272A1E08A600031093
:10044800260C9500542A1F0CA600260C0F39013AD9
:10045800031D2F2A302A3E2A37083804031D352A5F
:10046800362A3E2A1E08A600A7012608B500270836
:10047800B600542A1F0CA600260C0F39003A031D9B
:10048800462A472A542A37083804031D4C2A4D2A7D
:10049800542A1E08A600A7012608B3002708B4009E
:1004A8000C130D1E582A592A5A2A0D128C1C5D2A23
:1004B8005E2A5F2A8C1029088A00280E8300FE0E07
:1004C8007E0E09000730831603178800890107305C
:1004D8008316031385000E308600C030870088011C
:1004E80003308312031388000130BF000030C000BE
:1004F8000130BD000030BE000E3083160313960095
:1005080070308F048F110F14811381120112811121
:100518000108F83906388100E1308312031381009D
:10052800831603130C170D16831203131F083F3984
:1005380080389F001F14831603139F131F129F12E6
:10054800831203139F10C3309F050C3083160313C7
:10055800990018128312031398178316031318139C
:10056800981683120313181318163F3097051708A7
:10057800F0390C389700831603130715F6309200EC
:100588000F30831203139500CF30970587309205FB
:100598000330920412158C108C1CD32AD42AD02A2A
:1005A8008C108316031307118C160C128B150B175E
:1005B8000B168B170D160B10831203130C128C12CB
:1005C8009F14B701B8012D300A128A1105250A12A5
:1005D8008A11823083120313AF00DD30AE00AE0BF8
:1005E800F32AAF0BF32A01300A128A1105250A12E1
:1005F8008A11332B9F18012B022B332B1F0CAE00B3
:100608002E0C0F39003A031D0A2B0B2B102B1F0839
:10061800C33904389F00292B1F0CAE002E0C0F394C
:10062800013A031D182B192B1E2B1F08C339083834
:100638009F00292B1F0CAE002E0C0F39023A031D08
:10064800262B272B292BC3309F0520308312031319
:10065800AE00AE0B2D2B0000831203139F148312E0
:1006680003133708380403193A2B3B2BFE2A3703A8
:100678003804031D402B412B9D2B08150030AA0080
:10068800AB003608AD003508AC000A128A114F25B8
:100698000A128A11013083120313AA000030AB003A
:1006A8003408AD003308AC000A128A114F250A122B
:1006B8008A11023083120313AA000030AB003208FB
:1006C800AD003108AC000A128A114F250A128A11AE
:1006D800033083120313AA000030AB004008AD00BA
:1006E8003F08AC000A128A114F250A128A110430F9
:1006F80083120313AA000030AB003E08AD003D088A
:10070800AC000A128A114F250A128A110630831288
:100718000313B0001330AF00AD30AE00AE0B922B18
:10072800AF0B922BB00B922B831203130811B70156
:10073800B801023037063804031DA32BA42BFC2B69
:1007480088150030AA00AB000A128A1171250A1216
:100758008A11831203132B08B6002A08B50001304A
:10076800AA000030AB000A128A1171250A128A11F8
:10077800831203132B08B4002A08B3000230AA001E
:100788000030AB000A128A1171250A128A118312ED
:1007980003132B08B2002A08B1000330AA00003066
:1007A800AB000A128A1171250A128A1183120313E7
:1007B80008082A06FE392A0688000430AA000030F4
:1007C800AB000A128A1171250A128A1183120313C7
:1007D8002A08AE00AE0D08082E06FD392E06880040
:1007E8000230370638040319FA2BFB2BF42B881137
:1007F800033037063804031D022C032CE72A58302F
:100808000A128A1105250A128A110330831203136A
:10081800370638040319112C122C092CE72A0A125E
:100828008A110E2804308A000408840A82070034DA
:100838004F342034703472346534733469346F340F
:100848006E3465342034303420347034613472347A
:100858006134203463346F346E34743472346F34DA
:100868006C346134723420346C346F347334203413
:100878006D346F3474346F347234653473342034A7
:100888000D342034003400345034723465347334F9
:1008980069346F346E3465342034313420346F3425
:1008A800203432342034703461347234613420346A
:1008B80063346F346E34743472346F346C3461342E
:1008C800723420346C346F34733420344C344534EF
:1008D8004434733420340D3420340034003450341C
:1008E80072346534733469346F346E34653420344B
:1008F800773461347334643420347034613472343E
:100908006134203463346F346E34743472346F3429
:100918006C346134723420346D346F3474346F3411
:1009280072346534733420340D3420340034003488
:1009380083120313A101F71FA22CA32CAA2CF609DA
:10094800F709F60A0319F70AA101A10AF91FAD2C44
:10095800AE2CB72CF809F909F80A0319F90A01307D
:10096800FA007A08A106A201A30176087704031900
:10097800BE2CBF2CF62CA001A00ACD2C01300310F0
:10098800F60DF70DFF3E031DC32C0130FA007A085F
:10099800A007F71FD02CD12CC22C01300310A20DB8
:1009A800A30DFF3E031DD22C77087902031DDE2C10
:1009B80076087802031CE12CE22CE92C7608F80270
:1009C8007708031CF903F902221401300310F70C0D
:1009D800F60CFF3E031DEA2C0130A002031DF52C86
:1009E800F62CD12C21080319FA2CFB2C002DA20976
:1009F800A309A20A0319A30A2308F7002208F6008C
:100A0800080083120313AB001D2D2B0884000A1263
:100A18008A1116240A128A11990083160313981C46
:100A2800162D172D112D013083120313AA002A0841
:100A3800AB072B0884000A128A1116240A128A119D
:100A4800003A031D282D292D092D0800F401F50170
:100A5800701C2F2D302D362D7208F4070318F50A57
:100A68007308F50701300310F20DF30DFF3E031D67
:100A7800372D01300310F10CF00CFF3E031D3E2D05
:100A880070087104031D492D4A2D2C2D7508F1009D
:100A98007408F0000800831203132C08831203174C
:100AA8008D00831203132A08831203178C00831600
:100AB80003178C130C158B1355308D00AA308D003D
:100AC8008C14831203130D1E6A2D6B2D652D0D12C8
:100AD800831603170C118B170800831203132A08B7
:100AE800831203178D00831603178C130C148312BB
:100AF80003170C0883120313AC00AD012C08AA00DD
:100B08002D08AB000800892D892DFF3083120313AF
:100B1800A4070318A50AFF30A507240A031D982D6A
:100B2800250A031D982D992D882D08006C346F34E3
:040B38006C340034E5
:04400E00F43FFF3F3D
:00000001FF
